:100000000C9434000C9451000C9451000C94510049
:100010000C9451000C9451000C9451000C9451001C
:100020000C9451000C9451000C9451000C9451000C
:100030000C9451000C9451000C9451000C945100FC
:100040000C9451000C9451000C9451000C945100EC
:100050000C9451000C9451000C9451000C945100DC
:100060000C9451000C94510011241FBECFEFD8E026
:10007000DEBFCDBF12E0A0E0B1E0E8E6FFE002C0E5
:1000800005900D92A837B107D9F722E0A8E7B2E0B2
:1000900001C01D92AF38B207E1F70E94A9030C948A
:1000A000B2070C940000EF92FF920F931F93CF932F
:1000B000DF938C01C0E0D1E0FE0180E090E07C01A4
:1000C0000817190721F022813381E20EF31E0196F1
:1000D000349685309105A1F70E945E04B7010E9415
:1000E000C60320E030E0522F432F2017310739F0AC
:1000F0006A817B818617970750F0861B970B2F5FCD
:100100003F4F24962530310571F740E050E0852FB0
:10011000942FDF91CF911F910F91FF90EF90089551
:100120008230B9F1B0F4811123C00E945E0463E013
:1001300070E00E94DA0320E030E04DE151E08130D0
:1001400028F089F421E030E043E351E0BA01C9012D
:1001500008958330C1F141E252E0843009F03FC09C
:1001600047E052E03CC022E030E04EE451E0EECF08
:100170000E945E0462E070E00E94DA0320E030E05A
:1001800045E651E0811511F321E030E041E851E00E
:10019000DDCF6091790270917A0280917B0290911B
:1001A0007C022CE330E040E050E00E94EE0320FDB2
:1001B00005C020E030E045EA51E0C8CF21E030E062
:1001C00041EC51E0C3CF0E945E0462E070E00E9407
:1001D000DA034AED51E0811511F042EF51E021E0E0
:1001E00030E0B4CFBC018091780290E001960E948B
:1001F000DA0380937802089581E0909114019111BF
:1002000080E0809314010895CF93DF93FC01DC011B
:100210009B012C5E3F4FEB019991BE01911101C0F2
:1002200090E29D9362177307B1F7148ADF91CF9123
:100230000895CF93DF93CDB7DEB766970FB6F894E6
:10024000DEBF0FBECDBF8E8BCE0101960E94040192
:100250006E8980E00E942B03CE0101960E9462030A
:1002600066960FB6F894DEBF0FBECDBFDF91CF917B
:100270000895EF92FF920F931F93CF93DF93CDB723
:10028000DEB769970FB6F894DEBF0FBECDBF8C0105
:10029000FC0101900020E9F73197CF01801B910B01
:1002A0008E8B9F8B2091780230E0FE0131967E018B
:1002B00095E1E90EF11CE88FF98FC9016E897F89FC
:1002C0000E94DA03D801A80FB91F8C9181932F5F88
:1002D0003F4FEE15FF0589F71D8A61E080E00E941F
:1002E0002B03888D998D0E94620369960FB6F8944E
:1002F000DEBF0FBECDBFDF91CF911F910F91FF9059
:10030000EF900895CF93DF93CDB7DEB765970FB623
:10031000F894DEBF0FBECDBF209114012115B1F0BE
:10032000BC01CE0101960E94040161E080E00E94C0
:100330002B03CE0101960E94620365960FB6F894D6
:10034000DEBF0FBECDBFDF91CF91089544E150E0F5
:1003500060E270E0CE0101960E946C041D8AE5CF38
:100360008F929F92AF92BF92CF92DF92FF920F93A4
:100370001F93CF93DF93EC014A01F22E8A016B01A8
:100380000E9460021092780281E080931401BE0105
:1003900080E00E941901F40101900020E9F73197F3
:1003A000CF01881999094C0194E0F99E500111245C
:1003B000C0E0D0E0CA15DB0500F180917902909190
:1003C0007A02A0917B02B0917C028F0D911DA11D3C
:1003D000B11D8093790290937A02A0937B02B0932F
:1003E0007C02DF91CF911F910F91FF90DF90CF9012
:1003F000BF90AF909F908F900895C114D10489F45D
:10040000C8010E943901C4010E94F2008FEF94E3F9
:100410002CE0815090402040E1F700C00000219680
:10042000C9CF22E0C216D10449F4209719F0C0FFC9
:100430000E94FC00C8010E948201E8CFB80181E05F
:100440000E941901E3CF9BB19F708295807F892B19
:100450008BB95B985B9A5B988FEA94E00197F1F710
:1004600000C000000895CF93DF930F92CDB7DEB7A1
:100470008983611561F05A9A898182958F700E94F3
:10048000230289810F90DF91CF910C9423025A9817
:10049000F3CF60E00C94330261E00C94330280915E
:1004A0008E02982F946090938E028C600C94490277
:1004B00080918E028B7F80938E0288600C9449021B
:1004C00081E00E9449028FE39FE10197F1F700C0AC
:1004D000000008958AB18C6F8AB98BB1837F8BB984
:1004E0002FEF80E792E0215080409040E1F700C07C
:1004F000000083E00E9423028FE090E40197F1F76F
:1005000000C0000083E00E9423028FE090E4019786
:10051000F1F700C0000083E00E9423028FE090E426
:100520000197F1F700C0000082E00E9423028FE0F3
:1005300090E40197F1F700C0000088E20E944902B0
:100540008FE090E40197F1F700C000000E94600284
:100550008FE090E40197F1F700C0000084E0809301
:100560008E028CE00E9449028FE090E40197F1F73F
:1005700000C00000089582E00E9449028FE39FE1DD
:100580000197F1F700C00000089580918E02982F26
:10059000916090938E0289600C94490280918E0242
:1005A0008E7F80938E0288600C94490280918E0227
:1005B000982F926090938E028A600C9449028091E9
:1005C0008E028D7F80938E0288600C94490288E1B0
:1005D0000C9449028CE10C94490280918E02982F70
:1005E000926090938E0286600C94490280918E02F4
:1005F0008D7F80938E0284600C94490280918E02DC
:10060000982F916090938E0285600C94490280919E
:100610008E028E7F80938E0284600C9449020F9329
:100620001F93CF93DF93880F880F880F88738064A0
:10063000EB010E9449028E01085F1F4F89910E94C1
:100640004C02C017D107D1F780E8DF91CF911F91FD
:100650000F910C944902E62FF0E0E75EFE4F908187
:10066000890F80680C944902FC01DC012C91211156
:1006700002C010820895233C61F4DC0111963C9184
:10068000343AA1F040F43538A1F03639C1F03438AD
:1006900099F0019609C0353A29F0363BD1F7029618
:1006A00026EF02C0029625EE2193DFCF029624EEBC
:1006B000FBCF029625ECF8CF029624ECF5CF0296FC
:1006C00026EDF2CFCF93DF9300D000D0CDB7DEB7C9
:1006D00089839A830E94340329812B833A813C8346
:1006E000EB81FC818081811107C00F900F900F90EA
:1006F0000F90DF91CF910895EB81FC813196EB83D0
:10070000FC830E944C02ECCFEF92FF920F931F9359
:10071000CF93DF93CDB7DEB78E01075F1F4FF80190
:10072000E190F1908F01C7010E9434039801A70165
:1007300061E170E08DE792E00E9473048DE792E042
:100740000E946203DF91CF911F910F91FF90EF9074
:1007500008950E946A0282ED94E00E946304CFEF44
:10076000DFEFCE010E945300EC010E949000AB012C
:10077000BC01FE01EE0FFF1FEE0FFF1FE050FF4F09
:1007800024E1808191810E94B001EBCFAA1BBB1BA9
:1007900051E107C0AA1FBB1FA617B70710F0A61B81
:1007A000B70B881F991F5A95A9F780959095BC01A2
:1007B000CD01089597FB072E16F4009407D077FD1E
:1007C00009D00E94C60307FC05D03EF490958195A0
:1007D0009F4F0895709561957F4F0895A1E21A2E5D
:1007E000AA1BBB1BFD010DC0AA1FBB1FEE1FFF1FD5
:1007F000A217B307E407F50720F0A21BB30BE40B25
:10080000F50B661F771F881F991F1A9469F760956B
:100810007095809590959B01AC01BD01CF01089525
:10082000AAE0B0E0E6E1F4E00C947C0789879A87BF
:10083000FC016081718182819381009770406040EA
:1008400021F464E279ED8BE597E02DE133EF41E0AF
:1008500050E00E943A0729833A834B835C839B01D3
:10086000AC01A7EAB1E40E9459076D837E838F83B0
:100870009887ACEEB4EF29813A814B815C810E946C
:1008800067072D813E814F815885260F371F481FEE
:10089000591FC901DA01B7FF03C00197A109B04888
:1008A000E985FA8580839183A283B3839F772A9613
:1008B000E2E00C9498070E941004089585E191E00D
:1008C0000E941004089580931501909316011092D0
:1008D0001701109218010895DC0101C06D93415079
:1008E0005040E0F70895AEE0B0E0E9E7F4E00C94A2
:1008F0007A078C01CA0146E04C8309831A83FB0105
:100900006130704810F0E0E0F0E83197ED83FE834D
:10091000A901BC01CE0101960E94A0044D815E8117
:1009200057FD0AC02F813885421753070CF49A01EE
:10093000020F131FF80110822E96E4E00C94960724
:10094000ACE0B0E0E6EAF4E00C946F075C016B0108
:100950007A01FC0116821782838181FFD3C12AE0CC
:10096000522EF5012381F60123FD859123FF81910C
:100970006F01811509F42CC1853239F423FD95915D
:1009800023FF91916F01953229F4B50190E00E9407
:100990009B06E7CF30E0712C00E010E0103210F53C
:1009A0009B32C9F050F49032B9F09332C9F09E32C4
:1009B00061F516FD0DC1106405C09D3279F09033CC
:1009C00099F41160F60123FD959123FF91916F0138
:1009D0009111E4CF23C012601460F4CF1860F2CFFD
:1009E0001061F0CF17FD1AC080ED890F8A30F8F63C
:1009F00016FF05C0759C800D1124782EE3CF059D50
:100A0000800D1124082F1062DDCF9C3611F4106880
:100A1000D9CF9C3409F440C09836A1F2892F8F7D3C
:100A200085548330D8F1933609F45FC0933709F4C5
:100A30006AC0933509F476C0943619F0993609F0F6
:100A4000A2C0F70117FF98C06191719181919191B6
:100A50007F011F7697FF03C00E94510710682AE0AC
:100A600030E04E014FEF841A940AA4010E94DC0684
:100A7000682E681816FFD2C0812F8E7F671408F089
:100A8000CCC014FF1DC112FD11C11E7E972C812FF9
:100A9000867809F4CEC00FC131E094CF311509F149
:100AA000F8E0EF0EF11C8FE3898391E0692E712C41
:100AB0004E018FEF881A980A1F7713FD04C0601645
:100AC000710408F43FC06114710409F042C00115BB
:100AD00009F447CFB50180E290E00E949B060150E7
:100AE000F6CF44E0E40EF11CDECFF701808189836C
:100AF000F2E0EF0EF11C81E0682E712C4E014FEFF9
:100B0000841A940AD9CFF701819091907F01672DC3
:100B100070E016FD02C06FEF7FEFC4010E949006E7
:100B20003C01CACFF701819091907F01672D70E061
:100B300016FD02C06FEF7FEFC4010E9485063C01E5
:100B40001068BBCFB50180E290E00E949B06015087
:100B5000B6CFF40117FD859117FF81914F01B501C3
:100B600090E00E949B0681E0011101C080E0081B1B
:100B7000F1E06F1A7108A7CF61917191872F880FEB
:100B8000880B982F65CF9537C9F41F7E1C872AE004
:100B900030E0FC85F7FF3BC0F701619171918191D5
:100BA00091917F014E014FEF841A940AA4010E9493
:100BB000DC06682E68181C851F775CCF812F897F23
:100BC0008C87903799F058F49835B9F09F36E1F05A
:100BD000F501868197812C96EFE00C948B0798376E
:100BE000B9F714FD06C020E130E0D3CF9C859061B9
:100BF0009C87EC85E460EC87F6CF14FF02C016609A
:100C00001C8720E132E0C5CF28E030E0C2CFF701F9
:100C10006191719180E090E0C4CF182F962C14FF61
:100C200036CFFE01E60DF11D8081803309F041C011
:100C3000197E13FD0EC010FF4FC0762C901618F4CD
:100C4000700E7918902E802F8919091508F480E00C
:100C5000980E901608F042C0091914FF41C0B50162
:100C600080E390E00E949B0612FF09C088E590E0B7
:100C700011FD02C088E790E0B5010E949B06671451
:100C8000D0F14E018FEF881A980A6A94FE013296CD
:100C9000E60DF11D3F01F30182913F01B50190E0A6
:100CA0000E949B0668147904B1F711CF972C182F76
:100CB000B8CF12FD02C09394BCCF93949394B9CF54
:100CC000972C182FE4CEB50180E290E00E949B069D
:100CD00083948016C0F3B7CF892CFBCF00E0BDCF43
:100CE000812F867861F280E211FD8BE217FD8DE2A3
:100CF000B50190E0C2CFB50180E390E00E949B0671
:100D00007A94BDCF8FEF9FEF66CFFC0105906150C5
:100D100070400110D8F7809590958E0F9F1F089511
:100D2000FC016150704001900110D8F780959095BA
:100D30008E0F9F1F0895A3E0B0E0E1EAF6E00C9467
:100D40007B07182F99836A837B83DB0113968C9131
:100D500081FD09C01FEFBFEFB983812F99812396D1
:100D6000E3E00C94970782FF1BC0EA81FB81268198
:100D70003781848195812817390754F40190F081D7
:100D8000E02DCF010196AA81BB818D939D931083A5
:100D9000EA81FB8186819781019686839783DDCFE7
:100DA000AA81BB811896ED91FD911A97BD01812F03
:100DB0000995892B69F3CECFFA01AA27283051F182
:100DC000203181F1E8946F936E7F6E5F7F4F8F4F7C
:100DD0009F4FAF4FB1E03ED0B4E03CD0670F781FDB
:100DE000891F9A1FA11D680F791F8A1F911DA11DC0
:100DF0006A0F711D811D911DA11D20D009F46894F9
:100E00003F912AE0269F11243019305D3193DEF6A0
:100E1000CF010895462F4770405D4193B3E00FD056
:100E2000C9F7F6CF462F4F70405D4A3318F0495D41
:100E300031FD4052419302D0A9F7EACFB4E0A69524
:100E40009795879577956795BA95C9F70097610546
:100E5000710508959B01AC010A2E0694579547959C
:100E600037952795BA95C9F7620F731F841F951F91
:100E7000A01D0895052E97FB1EF400940E945107B3
:100E800057FD07D00E94EE0307FC03D04EF40C94EC
:100E9000510750954095309521953F4F4F4F5F4FEB
:100EA000089590958095709561957F4F8F4F9F4FD6
:100EB00008950E94A307A59F900DB49F900DA49F35
:100EC000800D911D11240895B7FF0C9459070E94BD
:100ED0005907821B930B08952F923F924F925F9276
:100EE0006F927F928F929F92AF92BF92CF92DF923A
:100EF000EF92FF920F931F93CF93DF93CDB7DEB79F
:100F0000CA1BDB0B0FB6F894DEBF0FBECDBF099432
:100F10002A88398848885F846E847D848C849B8489
:100F2000AA84B984C884DF80EE80FD800C811B8197
:100F3000AA81B981CE0FD11D0FB6F894DEBF0FBEC6
:100F4000CDBFED010895A29FB001B39FC001A39F43
:100F5000700D811D1124911DB29F700D811D1124F2
:080F6000911D0895F894FFCFE4
:100F68004E0188133202B80B4802DC056302A00F59
:100F78001202E8030101000000004014544B6F7096
:100F88002062696C20686F73204861727279202032
:100F9800202000456E20676F642062696C61666678
:100FA800617220666F72204861727279210048650B
:100FB8006465726C69676520486172727973204252
:100FC800696C6172004B6F702070616A20686F7382
:100FD800204661726D6F7220416E6B612020202067
:100FE80000536B796E646120696E6E616E204D618D
:100FF8007274656E206174697420616C6C61207014
:10100800616A6572004C6174205065747465722061
:1010180062796767612061742064696720202020F5
:101028000042796767612073766172743F20526964
:101038006E6720506574746572004D7973746572BB
:101048006965723F2052696E67204C616E67626500
:101058006E004C616E6762656E2066697861722009
:1010680062696666656E0053796E617320686172A5
:101078003F20494F542052656B6C616D62797261F3
:10108800004F6B616E74206D656464656C616E649D
:1010980065004661726D6F7220416E6B61732050FE
:1010A800616A65722041420053766172746520500E
:1010B80065747465727320537661727462796767B8
:1010C800656E004C616E6762656E20646574656B61
:0810D80074697662797261000F
:00000001FF
