:100000000C9434000C9451000C9451000C94510049
:100010000C9451000C9451000C9451000C9451001C
:100020000C9451000C9451000C9451000C9451000C
:100030000C9451000C9451000C9451000C945100FC
:100040000C9451000C9451000C9451000C945100EC
:100050000C9451000C9451000C9451000C945100DC
:100060000C9451000C94510011241FBECFEFD8E026
:10007000DEBFCDBF12E0A0E0B1E0ECE6FDE002C0E3
:1000800005900D92AE3AB107D9F722E0AEEAB2E0A0
:1000900001C01D92A43CB207E1F70E9494020C94A7
:1000A000B4060C940000EF92FF920F931F93CF932E
:1000B000DF938C01C0E0D1E0FE0180E090E07C01A4
:1000C0000817190721F022813381E20EF31E0196F1
:1000D000349685309105A1F70E946703B7010E940D
:1000E000CF0220E030E0522F432F2017310739F0A4
:1000F0006A817B818617970750F0861B970B2F5FCD
:100100003F4F24962530310571F74FEF5FEF852F74
:10011000942FDF91CF911F910F91FF90EF90089551
:10012000823009F170F4811113C00E94670363E00B
:1001300070E00E94E3028130B8F1C9F18BE591E0F3
:100140000895833019F1843061F185E692E00895D5
:100150000E94670362E070E00E94E302811551F1A2
:100160008BE991E008956091AE027091AF028091A9
:10017000B0029091B1022CE330E040E050E00E94E8
:10018000F70220FD1AC086EC91E008950E946703F3
:1001900062E070E00E94E302811591F086E292E055
:1001A000089582E492E008958CE191E0089587E358
:1001B00091E008958AE791E0089587EE91E008952F
:1001C00087E092E00895CF93DF9300D000D0CDB7C1
:1001D000DEB789839A836B837C830E944B012FEF68
:1001E00080E792E0215080409040E1F700C000009D
:1001F00060E080E00E94160289819A810E944D028F
:1002000060E081E00E9416028B819C810F900F902C
:100210000F900F90DF91CF910C944D029BB19F7086
:100220008295807F892B8BB95B985B9A5B988FEA6C
:1002300094E00197F1F700C000000895CF93DF9399
:100240000F92CDB7DEB78983611561F05A9A898123
:1002500082958F700E940E0189810F90DF91CF915E
:100260000C940E015A98F3CF60E00C941E0161E0EB
:100270000C941E018091C302982F94609093C30246
:100280008C600C9434018091C3028B7F8093C302F5
:1002900088600C94340181E00E9434018FE39FE177
:1002A0000197F1F700C0000008958AB18C6F8AB9F8
:1002B0008BB1837F8BB92FEF80E792E02150804094
:1002C0009040E1F700C0000083E00E940E018FE043
:1002D00090E40197F1F700C0000083E00E940E0156
:1002E0008FE090E40197F1F700C0000083E00E94E6
:1002F0000E018FE090E40197F1F700C0000082E06A
:100300000E940E018FE090E40197F1F700C0000019
:1003100088E20E9434018FE090E40197F1F700C079
:1003200000000E944B018FE090E40197F1F700C0BC
:10033000000084E08093C3028CE00E9434018FE0CF
:1003400090E40197F1F700C00000089582E00E9458
:1003500034018FE39FE10197F1F700C00000089599
:100360008091C302982F91609093C30289600C948E
:1003700034018091C3028E7F8093C30288600C9405
:1003800034018091C302982F92609093C3028A60D7
:100390000C9434018091C3028D7F8093C3028860E6
:1003A0000C94340188E10C9434018CE10C943401F8
:1003B0008091C302982F92609093C30286600C9440
:1003C00034018091C3028D7F8093C30284600C94BA
:1003D00034018091C302982F91609093C30285608D
:1003E0000C9434018091C3028E7F8093C302846099
:1003F0000C9434010F931F93CF93DF93880F880FD2
:10040000880F88738064EB010E9434018E01085FBD
:100410001F4F89910E943701C017D107D1F780E89B
:10042000DF91CF911F910F910C943401E62FF0E0F2
:10043000E85EFE4F9081890F80680C943401FC01C6
:10044000DC012C91211102C010820895233C61F43B
:10045000DC0111963C91343AA1F040F43538A1F01A
:100460003639C1F0343899F0019609C0353A29F08F
:10047000363BD1F7029626EF02C0029625EE219375
:10048000DFCF029624EEFBCF029625ECF8CF029642
:1004900024ECF5CF029626EDF2CFCF93DF9300D078
:1004A00000D0CDB7DEB789839A830E941F022981CD
:1004B0002B833A813C83EB81FC818081811107C0D1
:1004C0000F900F900F900F90DF91CF910895EB81D7
:1004D000FC813196EB83FC830E943701ECCFEF92D5
:1004E000FF920F931F93CF93DF93CDB7DEB78E01AB
:1004F000075F1F4FF801E190F1908F01C7010E9443
:100500001F029801A70161E170E082EB92E00E9476
:10051000750382EB92E00E944D02DF91CF911F9113
:100520000F91FF90EF9008950E94550182ED94E0A5
:100530000E946C03CFEFDFEFCE010E945300EC016D
:100540000E949000FE01EE0FFF1FEE0FFF1FE05014
:10055000FF4FBC01808191810E94E30084E12FEF75
:1005600033ED90E3215030409040E1F700C00000AF
:100570004091AE025091AF026091B0027091B10211
:100580004F5F5F4F6F4F7F4F4093AE025093AF026C
:100590006093B0027093B102815009F7CDCFAA1BCE
:1005A000BB1B51E107C0AA1FBB1FA617B70710F05E
:1005B000A61BB70B881F991F5A95A9F78095909590
:1005C000BC01CD01089597FB072E16F4009407D0C7
:1005D00077FD09D00E94CF0207FC05D03EF490952C
:1005E00081959F4F0895709561957F4F0895A1E281
:1005F0001A2EAA1BBB1BFD010DC0AA1FBB1FEE1F9D
:10060000FF1FA217B307E407F50720F0A21BB30BE7
:10061000E40BF50B661F771F881F991F1A9469F763
:1006200060957095809590959B01AC01BD01CF01BF
:100630000895AAE0B0E0EFE1F3E00C947E0689872C
:100640009A87FC016081718182819381009770405B
:10065000604021F464E279ED8BE597E02DE133EF22
:1006600041E050E00E943C0629833A834B835C833F
:100670009B01AC01A7EAB1E40E945B066D837E8317
:100680008F839887ACEEB4EF29813A814B815C81EE
:100690000E9469062D813E814F815885260F371FA4
:1006A000481F591FC901DA01B7FF03C00197A1090B
:1006B000B048E985FA8580839183A283B3839F77CD
:1006C0002A96E2E00C949A060E941903089584E1A8
:1006D00091E00E94190308958093140190931501ED
:1006E00010921601109217010895AEE0B0E0EBE70A
:1006F000F3E00C947C068C01CA0146E04C8309832C
:100700001A83FB016130704810F0E0E0F0E83197A7
:10071000ED83FE83A901BC01CE0101960E94A203D4
:100720004D815E8157FD0AC02F81388542175307DE
:100730000CF49A01020F131FF80110822E96E4E0C8
:100740000C949806ACE0B0E0E8EAF3E00C94710693
:100750005C016B017A01FC0116821782838181FFA3
:10076000D3C12AE0522EF5012381F60123FD8591A4
:1007700023FF81916F01811509F42CC1853239F471
:1007800023FD959123FF91916F01953229F4B501D5
:1007900090E00E949D05E7CF30E0712C00E010E072
:1007A000103210F59B32C9F050F49032B9F0933208
:1007B000C9F09E3261F516FD0DC1106405C09D3271
:1007C00079F0903399F41160F60123FD959123FFA0
:1007D00091916F019111E4CF23C012601460F4CFA6
:1007E0001860F2CF1061F0CF17FD1AC080ED890FAD
:1007F0008A30F8F616FF05C0759C800D1124782EFE
:10080000E3CF059D800D1124082F1062DDCF9C36AB
:1008100011F41068D9CF9C3409F440C09836A1F285
:10082000892F8F7D85548330D8F1933609F45FC0CA
:10083000933709F46AC0933509F476C0943619F0F9
:10084000993609F0A2C0F70117FF98C06191719124
:10085000819191917F011F7697FF03C00E945306FB
:1008600010682AE030E04E014FEF841A940AA40188
:100870000E94DE05682E681816FFD2C0812F8E7F79
:10088000671408F0CCC014FF1DC112FD11C11E7EFB
:10089000972C812F867809F4CEC00FC131E094CF18
:1008A000311509F1F8E0EF0EF11C8FE3898391E037
:1008B000692E712C4E018FEF881A980A1F7713FD4D
:1008C00004C06016710408F43FC06114710409F09B
:1008D00042C0011509F447CFB50180E290E00E94C3
:1008E0009D050150F6CF44E0E40EF11CDECFF70188
:1008F00080818983F2E0EF0EF11C81E0682E712C7B
:100900004E014FEF841A940AD9CFF701819091904C
:100910007F01672D70E016FD02C06FEF7FEFC4010D
:100920000E9492053C01CACFF701819091907F010E
:10093000672D70E016FD02C06FEF7FEFC4010E94CB
:1009400087053C011068BBCFB50180E290E00E94B2
:100950009D050150B6CFF40117FD859117FF8191D8
:100960004F01B50190E00E949D0581E0011101C099
:1009700080E0081BF1E06F1A7108A7CF61917191B7
:10098000872F880F880B982F65CF9537C9F41F7E66
:100990001C872AE030E0FC85F7FF3BC0F70161913E
:1009A0007191819191917F014E014FEF841A940AC8
:1009B000A4010E94DE05682E68181C851F775CCF95
:1009C000812F897F8C87903799F058F49835B9F04A
:1009D0009F36E1F0F501868197812C96EFE00C942B
:1009E0008D069837B9F714FD06C020E130E0D3CF6B
:1009F0009C8590619C87EC85E460EC87F6CF14FFC2
:100A000002C016601C8720E132E0C5CF28E030E04C
:100A1000C2CFF7016191719180E090E0C4CF182FAF
:100A2000962C14FF36CFFE01E60DF11D8081803338
:100A300009F041C0197E13FD0EC010FF4FC0762C87
:100A4000901618F4700E7918902E802F89190915B8
:100A500008F480E0980E901608F042C0091914FFBF
:100A600041C0B50180E390E00E949D0512FF09C0DE
:100A700088E590E011FD02C088E790E0B5010E9492
:100A80009D056714D0F14E018FEF881A980A6A9479
:100A9000FE013296E60DF11D3F01F30182913F0107
:100AA000B50190E00E949D0568147904B1F711CF5B
:100AB000972C182FB8CF12FD02C09394BCCF9394FB
:100AC0009394B9CF972C182FE4CEB50180E290E033
:100AD0000E949D0583948016C0F3B7CF892CFBCF6D
:100AE00000E0BDCF812F867861F280E211FD8BE2BC
:100AF00017FD8DE2B50190E0C2CFB50180E390E033
:100B00000E949D057A94BDCF8FEF9FEF66CFFC01C9
:100B10000590615070400110D8F7809590958E0F28
:100B20009F1F0895FC016150704001900110D8F79B
:100B3000809590958E0F9F1F0895A3E0B0E0E3EAA3
:100B4000F5E00C947D06182F99836A837B83DB0183
:100B500013968C9181FD09C01FEFBFEFB983812FE0
:100B600099812396E3E00C94990682FF1BC0EA81E9
:100B7000FB8126813781848195812817390754F4B8
:100B80000190F081E02DCF010196AA81BB818D9368
:100B90009D931083EA81FB818681978101968683EC
:100BA0009783DDCFAA81BB811896ED91FD911A97AD
:100BB000BD01812F0995892B69F3CECFFA01AA27B0
:100BC000283051F1203181F1E8946F936E7F6E5F90
:100BD0007F4F8F4F9F4FAF4FB1E03ED0B4E03CD03E
:100BE000670F781F891F9A1FA11D680F791F8A1F21
:100BF000911DA11D6A0F711D811D911DA11D20D088
:100C000009F468943F912AE0269F11243019305D41
:100C10003193DEF6CF010895462F4770405D419332
:100C2000B3E00FD0C9F7F6CF462F4F70405D4A337F
:100C300018F0495D31FD4052419302D0A9F7EACF47
:100C4000B4E0A6959795879577956795BA95C9F776
:100C500000976105710508959B01AC010A2E069469
:100C60005795479537952795BA95C9F7620F731F22
:100C7000841F951FA01D0895052E97FB1EF4009458
:100C80000E94530657FD07D00E94F70207FC03D0CD
:100C90004EF40C94530650954095309521953F4F56
:100CA0004F4F5F4F089590958095709561957F4F58
:100CB0008F4F9F4F08950E94A506A59F900DB49F4A
:100CC000900DA49F800D911D11240895B7FF0C94E1
:100CD0005B060E945B06821B930B08952F923F9246
:100CE0004F925F926F927F928F929F92AF92BF923C
:100CF000CF92DF92EF92FF920F931F93CF93DF93E8
:100D0000CDB7DEB7CA1BDB0B0FB6F894DEBF0FBE44
:100D1000CDBF09942A88398848885F846E847D8491
:100D20008C849B84AA84B984C884DF80EE80FD8093
:100D30000C811B81AA81B981CE0FD11D0FB6F89409
:100D4000DEBF0FBECDBFED010895A29FB001B39FDE
:100D5000C001A39F700D811D1124911DB29F700DC4
:0C0D6000811D1124911D0895F894FFCF0F
:100D6C00760288137C02B80B8802DC059602A00F71
:100D7C009E02E80301000000004014544B6F7020E9
:100D8C0062696C20686F73204861727279205B53C2
:100D9C0043524F4C4C5D00456E20676F6420626976
:100DAC006C61666661722028666F7220486172728F
:100DBC00792129205B544558545D0048656465725F
:100DCC006C696765204861727279732042696C6145
:100DDC0072205B424C494E4B5D004B6F7020706132
:100DEC006A20686F73204661726D6F7220416E6B62
:100DFC0061205B5343524F4C4C5D00536B796E64D6
:100E0C006120696E6E616E204D617274656E206139
:100E1C0074697420616C6C612070616A6572205B0E
:100E2C00544558545D004C6174205065747465725F
:100E3C0020627967676120617420646967205B5365
:100E4C0043524F4C4C5D0042796767612073766169
:100E5C0072743F2052696E672050657474657220FD
:100E6C005B544558545D004D7973746572696572B5
:100E7C003F2052696E67204C616E6762656E205B25
:100E8C00544558545D004C616E6762656E2066690E
:100E9C007861722062696666656E205B54455854B1
:100EAC005D0053796E6173206861723F20494F5425
:100EBC003A732052656B6C616D62797261205B5480
:100ECC004558545D004F6B616E74206D65646465AC
:100EDC006C616E6465004861727279004661726D76
:100EEC006F7220416E6B6100537661727465205095
:100EFC006574746572004C616E6762656E00494F73
:0E0F0C00542052656B6C616D62797261000059
:00000001FF
