:100000000C9434000C9451000C9451000C94510049
:100010000C9451000C9451000C9451000C9451001C
:100020000C9451000C9451000C9451000C9451000C
:100030000C9451000C9451000C9451000C945100FC
:100040000C9451000C9451000C9451000C945100EC
:100050000C9451000C9451000C9451000C945100DC
:100060000C9451000C94510011241FBECFEFD8E026
:10007000DEBFCDBF12E0A0E0B1E0E4EBFEE002C0E5
:1000800005900D92A634B107D9F722E0A6E4B2E0BC
:1000900001C01D92AD35B207E1F70E9457030C94E1
:1000A00058070C940000EF92FF920F931F93CF9389
:1000B000DF937C0100E011E0F80180E090E0EC01CA
:1000C000E816F90621F022813381C20FD31F019671
:1000D000349685309105A1F72097D9F00E940B0442
:1000E000BE010E94730320E030E0522F432F2E15F3
:1000F0003F0541F0F801628173818617970758F038
:10010000861B970B2F5F3F4F0C5F1F4F253031052C
:1001100061F740E050E0852F942FDF91CF911F9140
:100120000F91FF90EF900895823009F170F48111E2
:1001300013C00E940B0463E070E00E9487038130CB
:10014000B8F1C9F187E092E00895833019F1843065
:1001500061F18FED91E008950E940B0462E070E080
:100160000E948703811551F186E891E0089560911E
:100170004702709148028091490290914A022CE313
:1001800030E040E050E00E949B0320FD1AC080EA6E
:1001900091E008950E940B0462E070E00E948703E2
:1001A000811591F087EC91E0089584ED91E0089538
:1001B0008DE191E008958FE491E0089588E791E062
:1001C00008958EEA91E008958AEB91E00895BC01CC
:1001D0008091460290E001960E9487038093460238
:1001E000089581E090911401911180E080931401B1
:1001F0000895EF92FF920F931F93CF93DF93CDB7A4
:10020000DEB769970FB6F894DEBF0FBECDBF8C0185
:10021000FC0101900020E9F73197CF01801B910B81
:100220008E8B9F8B2091460230E0FE0131967E013D
:1002300095E1E90EF11CE88FF98FC9016E897F897C
:100240000E948703D801A80FB91F8C9181932F5F5B
:100250003F4FEE15FF0589F71D8A61E080E00E949F
:10026000D902888D998D0E94100369960FB6F89473
:10027000DEBF0FBECDBFDF91CF911F910F91FF90D9
:10028000EF900895CF93DF9300D0CDB7DEB7898389
:100290009A8360E080E00E94D90280911401811568
:1002A00041F089819A810F900F90DF91CF910C944A
:1002B000100380EF91E0F7CFDF92EF92FF920F9360
:1002C0001F93CF93DF9300D000D000D0CDB7DEB71F
:1002D0008B839C836D837E83D42E0E940E021092AA
:1002E000460281E080931401ED81FE81019000209F
:1002F000E9F731979F018D819E81281B390B298356
:100300003A839AE0D99E80011124E12CF12CE01669
:10031000F10610F18091470290914802A0914902A4
:10032000B0914A028D0D911DA11DB11D8093470210
:1003300090934802A0934902B0934A020F900F9005
:100340000F900F900F900F90DF91CF911F910F9111
:10035000FF90EF90DF900895E114F10449F0C70198
:1003600065E070E00E947303892B11F40E94F10094
:1003700089819A810E94E7008B819C810E944201C1
:100380008D819E810E94F9002FEF34E38CE0215093
:1003900030408040E1F700C000009FEFE91AF90A01
:1003A000B6CF9BB19F708295807F892B8BB95B986C
:1003B0005B9A5B988FEA94E00197F1F700C0000028
:1003C0000895CF93DF930F92CDB7DEB78983611580
:1003D00061F05A9A898182958F700E94D10189813A
:1003E0000F90DF91CF910C94D1015A98F3CF60E038
:1003F0000C94E10161E00C94E10180915C02982F82
:10040000946090935C028C600C94F70180915C0284
:100410008B7F80935C0288600C94F70181E00E94DE
:10042000F7018FE39FE10197F1F700C00000089505
:100430008AB18C6F8AB98BB1837F8BB92FEF80E73C
:1004400092E0215080409040E1F700C0000083E03E
:100450000E94D1018FE090E40197F1F700C0000005
:1004600083E00E94D1018FE090E40197F1F700C092
:10047000000083E00E94D1018FE090E40197F1F742
:1004800000C0000082E00E94D1018FE090E401975B
:10049000F1F700C0000088E20E94F7018FE090E4CD
:1004A0000197F1F700C000000E940E028FE090E477
:1004B0000197F1F700C0000084E080935C028CE0BB
:1004C0000E94F7018FE090E40197F1F700C000006F
:1004D000089582E00E94F7018FE39FE10197F1F711
:1004E00000C00000089580915C02982F9160909365
:1004F0005C0289600C94F70180915C028E7F80938E
:100500005C0288600C94F70180915C02982F9260E5
:1005100090935C028A600C94F70180915C028D7F5D
:1005200080935C0288600C94F70188E10C94F701D9
:100530008CE10C94F70180915C02982F926090936B
:100540005C0286600C94F70180915C028D7F809341
:100550005C0284600C94F70180915C02982F91609A
:1005600090935C0285600C94F70180915C028E7F11
:1005700080935C0284600C94F7010F931F93CF93D8
:10058000DF93880F880F880F88738064EB010E94C7
:10059000F7018E01085F1F4F89910E94FA01C01771
:1005A000D107D1F780E8DF91CF911F910F910C9483
:1005B000F701E62FF0E0E75EFE4F9081890F80683B
:1005C0000C94F701FC01DC012C91211102C0108276
:1005D0000895233C61F4DC0111963C91343AA1F07A
:1005E00040F43538A1F03639C1F0343899F001962D
:1005F00009C0353A29F0363BD1F7029626EF02C002
:10060000029625EE2193DFCF029624EEFBCF0296D1
:1006100025ECF8CF029624ECF5CF029626EDF2CF2A
:10062000CF93DF9300D000D0CDB7DEB789839A8314
:100630000E94E20229812B833A813C83EB81FC8179
:100640008081811107C00F900F900F900F90DF9164
:10065000CF910895EB81FC813196EB83FC830E945E
:10066000FA01ECCFEF92FF920F931F93CF93DF939A
:10067000CDB7DEB78E01075F1F4FF801E190F19013
:100680008F01C7010E94E2029801A70161E170E0B9
:100690008BE492E00E9419048BE492E00E94100324
:1006A000DF91CF911F910F91FF90EF9008950E94DD
:1006B000180286B590E00E941004CFEFDFEFCE0164
:1006C0000E945300EC010E949400FE01EE0FFF1FF8
:1006D000EE0FFF1FE050FF4F44E1BC01808191818C
:1006E0000E945C01ECCFAA1BBB1B51E107C0AA1FF3
:1006F000BB1FA617B70710F0A61BB70B881F991FC3
:100700005A95A9F780959095BC01CD01089597FB66
:10071000072E16F4009407D077FD09D00E947303CA
:1007200007FC05D03EF4909581959F4F08957095F4
:1007300061957F4F0895A1E21A2EAA1BBB1BFD01F4
:100740000DC0AA1FBB1FEE1FFF1FA217B307E407B0
:10075000F50720F0A21BB30BE40BF50B661F771F08
:10076000881F991F1A9469F76095709580959095E8
:100770009B01AC01BD01CF010895AAE0B0E0E3EC1C
:10078000F3E00C94220789879A87FC0160817181CC
:100790008281938100977040604021F464E279ED9A
:1007A0008BE597E02DE133EF41E050E00E94E00659
:1007B00029833A834B835C839B01AC01A7EAB1E4B4
:1007C0000E94FF066D837E838F839887ACEEB4EF23
:1007D00029813A814B815C810E940D072D813E81E8
:1007E0004F815885260F371F481F591FC901DA014D
:1007F000B7FF03C00197A109B048E985FA85808356
:100800009183A283B3839F772A96E2E00C943E07FC
:100810000E94BD03089585E191E00E94BD03089503
:1008200080931501909316011092170110921801F0
:100830000895AEE0B0E0EFE1F4E00C9420078C0105
:10084000CA0146E04C8309831A83FB01613070487A
:1008500010F0E0E0F0E83197ED83FE83A901BC01E0
:10086000CE0101960E9446044D815E8157FD0AC06B
:100870002F813885421753070CF49A01020F131F7A
:10088000F80110822E96E4E00C943C07ACE0B0E056
:10089000ECE4F4E00C9415075C016B017A01FC01B7
:1008A00016821782838181FFD3C12AE0522EF5017F
:1008B0002381F60123FD859123FF81916F0181152D
:1008C00009F42CC1853239F423FD959123FF9191D0
:1008D0006F01953229F4B50190E00E944106E7CFFF
:1008E00030E0712C00E010E0103210F59B32C9F0BE
:1008F00050F49032B9F09332C9F09E3261F516FD92
:100900000DC1106405C09D3279F0903399F41160E7
:10091000F60123FD959123FF91916F019111E4CF91
:1009200023C012601460F4CF1860F2CF1061F0CFD2
:1009300017FD1AC080ED890F8A30F8F616FF05C042
:10094000759C800D1124782EE3CF059D800D112418
:10095000082F1062DDCF9C3611F41068D9CF9C347B
:1009600009F440C09836A1F2892F8F7D85548330D9
:10097000D8F1933609F45FC0933709F46AC0933510
:1009800009F476C0943619F0993609F0A2C0F7013F
:1009900017FF98C061917191819191917F011F76AC
:1009A00097FF03C00E94F70610682AE030E04E016E
:1009B0004FEF841A940AA4010E948206682E6818D8
:1009C00016FFD2C0812F8E7F671408F0CCC014FFB1
:1009D0001DC112FD11C11E7E972C812F867809F44E
:1009E000CEC00FC131E094CF311509F1F8E0EF0E20
:1009F000F11C8FE3898391E0692E712C4E018FEFFA
:100A0000881A980A1F7713FD04C06016710408F451
:100A10003FC06114710409F042C0011509F447CFC9
:100A2000B50180E290E00E9441060150F6CF44E01B
:100A3000E40EF11CDECFF70180818983F2E0EF0E36
:100A4000F11C81E0682E712C4E014FEF841A940A3C
:100A5000D9CFF701819091907F01672D70E016FD4D
:100A600002C06FEF7FEFC4010E9436063C01CACF7F
:100A7000F701819091907F01672D70E016FD02C013
:100A80006FEF7FEFC4010E942B063C011068BBCFC3
:100A9000B50180E290E00E9441060150B6CFF4011A
:100AA00017FD859117FF81914F01B50190E00E94DC
:100AB000410681E0011101C080E0081BF1E06F1ADE
:100AC0007108A7CF61917191872F880F880B982F9C
:100AD00065CF9537C9F41F7E1C872AE030E0FC857E
:100AE000F7FF3BC0F70161917191819191917F0175
:100AF0004E014FEF841A940AA4010E948206682EC8
:100B000068181C851F775CCF812F897F8C87903771
:100B100099F058F49835B9F09F36E1F0F5018681E7
:100B200097812C96EFE00C9431079837B9F714FDB4
:100B300006C020E130E0D3CF9C8590619C87EC8596
:100B4000E460EC87F6CF14FF02C016601C8720E13A
:100B500032E0C5CF28E030E0C2CFF701619171915A
:100B600080E090E0C4CF182F962C14FF36CFFE0102
:100B7000E60DF11D8081803309F041C0197E13FD1F
:100B80000EC010FF4FC0762C901618F4700E791816
:100B9000902E802F8919091508F480E0980E901680
:100BA00008F042C0091914FF41C0B50180E390E08C
:100BB0000E94410612FF09C088E590E011FD02C0C5
:100BC00088E790E0B5010E9441066714D0F14E011C
:100BD0008FEF881A980A6A94FE013296E60DF11D8D
:100BE0003F01F30182913F01B50190E00E9441066F
:100BF00068147904B1F711CF972C182FB8CF12FDD4
:100C000002C09394BCCF93949394B9CF972C182F90
:100C1000E4CEB50180E290E00E9441068394801604
:100C2000C0F3B7CF892CFBCF00E0BDCF812F8678F2
:100C300061F280E211FD8BE217FD8DE2B50190E0DB
:100C4000C2CFB50180E390E00E9441067A94BDCF07
:100C50008FEF9FEF66CFFC0105906150704001104F
:100C6000D8F7809590958E0F9F1F0895FC016150D5
:100C7000704001900110D8F7809590958E0F9F1FBE
:100C80000895A3E0B0E0E7E4F6E00C942107182F04
:100C900099836A837B83DB0113968C9181FD09C064
:100CA0001FEFBFEFB983812F99812396E3E00C9466
:100CB0003D0782FF1BC0EA81FB8126813781848149
:100CC00095812817390754F40190F081E02DCF0168
:100CD0000196AA81BB818D939D931083EA81FB814C
:100CE00086819781019686839783DDCFAA81BB8118
:100CF0001896ED91FD911A97BD01812F0995892BC9
:100D000069F3CECFFA01AA27283051F1203181F1C1
:100D1000E8946F936E7F6E5F7F4F8F4F9F4FAF4F03
:100D2000B1E03ED0B4E03CD0670F781F891F9A1F16
:100D3000A11D680F791F8A1F911DA11D6A0F711DCA
:100D4000811D911DA11D20D009F468943F912AE0D6
:100D5000269F11243019305D3193DEF6CF010895BE
:100D6000462F4770405D4193B3E00FD0C9F7F6CFEF
:100D7000462F4F70405D4A3318F0495D31FD4052B7
:100D8000419302D0A9F7EACFB4E0A695979587954D
:100D900077956795BA95C9F700976105710508952C
:100DA0009B01AC010A2E06945795479537952795D8
:100DB000BA95C9F7620F731F841F951FA01D089570
:100DC000052E97FB1EF400940E94F70657FD07D0EE
:100DD0000E949B0307FC03D04EF40C94F706509539
:100DE0004095309521953F4F4F4F5F4F0895909517
:100DF0008095709561957F4F8F4F9F4F08950E940A
:100E00004907A59F900DB49F900DA49F800D911D43
:100E100011240895B7FF0C94FF060E94FF06821B61
:100E2000930B08952F923F924F925F926F927F9211
:100E30008F929F92AF92BF92CF92DF92EF92FF92EA
:100E40000F931F93CF93DF93CDB7DEB7CA1BDB0B96
:100E50000FB6F894DEBF0FBECDBF09942A8839883B
:100E600048885F846E847D848C849B84AA84B98442
:100E7000C884DF80EE80FD800C811B81AA81B9814E
:100E8000CE0FD11D0FB6F894DEBF0FBECDBFED0162
:100E90000895A29FB001B39FC001A39F700D811D53
:100EA0001124911DB29F700D811D1124911D089573
:040EB000F894FFCFE4
:100EB400050288131402B80B2902DC05BF01A00F38
:100EC4003702E8030101000000004014544B6F7026
:100ED4002062696C20686F732048617272792E20D9
:100EE400456E20676F642062696C6166666172207A
:100EF40028666F7220486172727921292020004788
:100F04006F642062696C61666661722C2048656456
:100F140065726C69676520486172727973204269F1
:100F24006C617220202020004B6F702070616A2059
:100F3400686F732046004B6F702070616A20686F81
:100F440073204661726D6F7220416E6B61202000C8
:100F540050657474657220627967676572005269BE
:100F64006E67205065747465720052696E67204C18
:100F7400616E6762656E00466978617220626966B7
:100F840066656E0053796E6173206861723F004F2D
:100F94006B616E74206D656464656C616E6465007C
:100FA400202020202020202020202020202020203D
:100FB4002020202000202048617272797320426929
:100FC4006C6172004B6F7020686F73204661726DA4
:100FD4006F7220416E6B61200053766172746520DC
:100FE40050657474657200494F542052656B6C618E
:060FF4006D6279726100DC
:00000001FF
