:100000000C9434000C9451000C9451000C94510049
:100010000C9451000C9451000C9451000C9451001C
:100020000C9451000C9451000C9451000C9451000C
:100030000C9451000C9451000C9451000C945100FC
:100040000C9451000C9451000C9451000C945100EC
:100050000C9451000C9451000C9451000C945100DC
:100060000C9451000C94510011241FBECFEFD8E026
:10007000DEBFCDBF11E0A0E0B1E0ECE8FDE002C0E2
:1000800005900D92A43FB107D9F722E0A4EFB1E0AB
:1000900001C01D92AA30B207E1F70E94A4020C949D
:1000A000C4060C940000EF92FF920F931F93CF931E
:1000B000DF938C01C0E0D1E0FE0180E090E07C01A4
:1000C0000817190721F022813381E20EF31E0196F1
:1000D000349685309105A1F70E947703B7010E94FD
:1000E000DF0220E030E0522F432F2017310739F094
:1000F0006A817B818617970750F0861B970B2F5FCD
:100100003F4F24962530310571F74FEF5FEF852F74
:10011000942FDF91CF911F910F91FF90EF90089551
:10012000823009F170F4811113C00E94770363E0FB
:1001300070E00E94F3028130B8F1C9F187E391E0E9
:100140000895833019F1843061F182EA91E00895D5
:100150000E94770362E070E00E94F302811551F182
:1001600082E591E008956091F4017091F50180912C
:10017000F6019091F7012CE330E040E050E00E945E
:10018000070320FD1AC083E691E008950E947703DB
:1001900062E070E00E94F302811591F08AE891E03C
:1001A000089587E991E008958CE191E008958AE24D
:1001B00091E0089584E491E0089581E791E0089545
:1001C0008DE791E00895CF93DF9300D000D0CDB7B5
:1001D000DEB789839A836B837C830E945B012FEF58
:1001E00080E792E0215080409040E1F700C000009D
:1001F00060E080E00E94260283EB91E00E945D02B5
:1002000060E080E00E94260283EB91E00E945D02A4
:1002100060E081E00E94260289819A810E945D024D
:1002200060E081E00E9426028B819C810F900F90FC
:100230000F900F90DF91CF910C945D029BB19F7056
:100240008295807F892B8BB95B985B9A5B988FEA4C
:1002500094E00197F1F700C000000895CF93DF9379
:100260000F92CDB7DEB78983611561F05A9A898103
:1002700082958F700E941E0189810F90DF91CF912E
:100280000C941E015A98F3CF60E00C942E0161E0AB
:100290000C942E0180910902982F9460909309028A
:1002A0008C600C944401809109028B7F8093090239
:1002B00088600C94440181E00E9444018FE39FE137
:1002C0000197F1F700C0000008958AB18C6F8AB9D8
:1002D0008BB1837F8BB92FEF80E792E02150804074
:1002E0009040E1F700C0000083E00E941E018FE013
:1002F00090E40197F1F700C0000083E00E941E0126
:100300008FE090E40197F1F700C0000083E00E94C5
:100310001E018FE090E40197F1F700C0000082E039
:100320000E941E018FE090E40197F1F700C00000E9
:1003300088E20E9444018FE090E40197F1F700C049
:1003400000000E945B018FE090E40197F1F700C08C
:10035000000084E0809309028CE00E9444018FE059
:1003600090E40197F1F700C00000089582E00E9438
:1003700044018FE39FE10197F1F700C00000089569
:1003800080910902982F91609093090289600C94E2
:100390004401809109028E7F8093090288600C9449
:1003A000440180910902982F9260909309028A601B
:1003B0000C944401809109028D7F8093090288602A
:1003C0000C94440188E10C9444018CE10C944401A8
:1003D00080910902982F92609093090286600C9494
:1003E0004401809109028D7F8093090284600C94FE
:1003F000440180910902982F9160909309028560D1
:100400000C944401809109028E7F809309028460DC
:100410000C9444010F931F93CF93DF93880F880FA1
:10042000880F88738064EB010E9444018E01085F8D
:100430001F4F89910E944701C017D107D1F780E86B
:10044000DF91CF911F910F910C944401E62FF0E0C2
:10045000E85EFE4F9081890F80680C944401FC0196
:10046000DC012C91211102C010820895233C61F41B
:10047000DC0111963C91343AA1F040F43538A1F0FA
:100480003639C1F0343899F0019609C0353A29F06F
:10049000363BD1F7029626EF02C0029625EE219355
:1004A000DFCF029624EEFBCF029625ECF8CF029622
:1004B00024ECF5CF029626EDF2CFCF93DF9300D058
:1004C00000D0CDB7DEB789839A830E942F0229819D
:1004D0002B833A813C83EB81FC818081811107C0B1
:1004E0000F900F900F900F90DF91CF910895EB81B7
:1004F000FC813196EB83FC830E944701ECCFEF92A5
:10050000FF920F931F93CF93DF93CDB7DEB78E018A
:10051000075F1F4FF801E190F1908F01C7010E9422
:100520002F029801A70161E170E088EF91E00E943D
:10053000850388EF91E00E945D02DF91CF911F91CA
:100540000F91FF90EF9008950E94650182ED94E075
:100550000E947C03CFEFDFEFCE010E945300EC013D
:100560000E949000FE01EE0FFF1FEE0FFF1FE050F4
:10057000FF4FBC01808191810E94E30084E12FEF55
:1005800033ED90E3215030409040E1F700C000008F
:100590004091F4015091F5016091F6017091F701DD
:1005A0004F5F5F4F6F4F7F4F4093F4015093F501C2
:1005B0006093F6017093F701815009F7CDCFAA1B24
:1005C000BB1B51E107C0AA1FBB1FA617B70710F03E
:1005D000A61BB70B881F991F5A95A9F78095909570
:1005E000BC01CD01089597FB072E16F4009407D0A7
:1005F00077FD09D00E94DF0207FC05D03EF49095FC
:1006000081959F4F0895709561957F4F0895A1E260
:100610001A2EAA1BBB1BFD010DC0AA1FBB1FEE1F7C
:10062000FF1FA217B307E407F50720F0A21BB30BC7
:10063000E40BF50B661F771F881F991F1A9469F743
:1006400060957095809590959B01AC01BD01CF019F
:100650000895AAE0B0E0EFE2F3E00C948E068987FB
:100660009A87FC016081718182819381009770403B
:10067000604021F464E279ED8BE597E02DE133EF02
:1006800041E050E00E944C0629833A834B835C830F
:100690009B01AC01A7EAB1E40E946B066D837E83E7
:1006A0008F839887ACEEB4EF29813A814B815C81CE
:1006B0000E9479062D813E814F815885260F371F74
:1006C000481F591FC901DA01B7FF03C00197A109EB
:1006D000B048E985FA8580839183A283B3839F77AD
:1006E0002A96E2E00C94AA060E942903089584E168
:1006F00091E00E94290308958093140190931501BD
:1007000010921601109217010895AEE0B0E0EBE8E8
:10071000F3E00C948C068C01CA0146E04C830983FB
:100720001A83FB016130704810F0E0E0F0E8319787
:10073000ED83FE83A901BC01CE0101960E94B203A4
:100740004D815E8157FD0AC02F81388542175307BE
:100750000CF49A01020F131FF80110822E96E4E0A8
:100760000C94A806ACE0B0E0E8EBF3E00C94810652
:100770005C016B017A01FC0116821782838181FF83
:10078000D3C12AE0522EF5012381F60123FD859184
:1007900023FF81916F01811509F42CC1853239F451
:1007A00023FD959123FF91916F01953229F4B501B5
:1007B00090E00E94AD05E7CF30E0712C00E010E042
:1007C000103210F59B32C9F050F49032B9F09332E8
:1007D000C9F09E3261F516FD0DC1106405C09D3251
:1007E00079F0903399F41160F60123FD959123FF80
:1007F00091916F019111E4CF23C012601460F4CF86
:100800001860F2CF1061F0CF17FD1AC080ED890F8C
:100810008A30F8F616FF05C0759C800D1124782EDD
:10082000E3CF059D800D1124082F1062DDCF9C368B
:1008300011F41068D9CF9C3409F440C09836A1F265
:10084000892F8F7D85548330D8F1933609F45FC0AA
:10085000933709F46AC0933509F476C0943619F0D9
:10086000993609F0A2C0F70117FF98C06191719104
:10087000819191917F011F7697FF03C00E946306CB
:1008800010682AE030E04E014FEF841A940AA40168
:100890000E94EE05682E681816FFD2C0812F8E7F49
:1008A000671408F0CCC014FF1DC112FD11C11E7EDB
:1008B000972C812F867809F4CEC00FC131E094CFF8
:1008C000311509F1F8E0EF0EF11C8FE3898391E017
:1008D000692E712C4E018FEF881A980A1F7713FD2D
:1008E00004C06016710408F43FC06114710409F07B
:1008F00042C0011509F447CFB50180E290E00E94A3
:10090000AD050150F6CF44E0E40EF11CDECFF70157
:1009100080818983F2E0EF0EF11C81E0682E712C5A
:100920004E014FEF841A940AD9CFF701819091902C
:100930007F01672D70E016FD02C06FEF7FEFC401ED
:100940000E94A2053C01CACFF701819091907F01DE
:10095000672D70E016FD02C06FEF7FEFC4010E94AB
:1009600097053C011068BBCFB50180E290E00E9482
:10097000AD050150B6CFF40117FD859117FF8191A8
:100980004F01B50190E00E94AD0581E0011101C069
:1009900080E0081BF1E06F1A7108A7CF6191719197
:1009A000872F880F880B982F65CF9537C9F41F7E46
:1009B0001C872AE030E0FC85F7FF3BC0F70161911E
:1009C0007191819191917F014E014FEF841A940AA8
:1009D000A4010E94EE05682E68181C851F775CCF65
:1009E000812F897F8C87903799F058F49835B9F02A
:1009F0009F36E1F0F501868197812C96EFE00C940B
:100A00009D069837B9F714FD06C020E130E0D3CF3A
:100A10009C8590619C87EC85E460EC87F6CF14FFA1
:100A200002C016601C8720E132E0C5CF28E030E02C
:100A3000C2CFF7016191719180E090E0C4CF182F8F
:100A4000962C14FF36CFFE01E60DF11D8081803318
:100A500009F041C0197E13FD0EC010FF4FC0762C67
:100A6000901618F4700E7918902E802F8919091598
:100A700008F480E0980E901608F042C0091914FF9F
:100A800041C0B50180E390E00E94AD0512FF09C0AE
:100A900088E590E011FD02C088E790E0B5010E9472
:100AA000AD056714D0F14E018FEF881A980A6A9449
:100AB000FE013296E60DF11D3F01F30182913F01E7
:100AC000B50190E00E94AD0568147904B1F711CF2B
:100AD000972C182FB8CF12FD02C09394BCCF9394DB
:100AE0009394B9CF972C182FE4CEB50180E290E013
:100AF0000E94AD0583948016C0F3B7CF892CFBCF3D
:100B000000E0BDCF812F867861F280E211FD8BE29B
:100B100017FD8DE2B50190E0C2CFB50180E390E012
:100B20000E94AD057A94BDCF8FEF9FEF66CFFC0199
:100B30000590615070400110D8F7809590958E0F08
:100B40009F1F0895FC016150704001900110D8F77B
:100B5000809590958E0F9F1F0895A3E0B0E0E3EB82
:100B6000F5E00C948D06182F99836A837B83DB0153
:100B700013968C9181FD09C01FEFBFEFB983812FC0
:100B800099812396E3E00C94A90682FF1BC0EA81B9
:100B9000FB8126813781848195812817390754F498
:100BA0000190F081E02DCF010196AA81BB818D9348
:100BB0009D931083EA81FB818681978101968683CC
:100BC0009783DDCFAA81BB811896ED91FD911A978D
:100BD000BD01812F0995892B69F3CECFFA01AA2790
:100BE000283051F1203181F1E8946F936E7F6E5F70
:100BF0007F4F8F4F9F4FAF4FB1E03ED0B4E03CD01E
:100C0000670F781F891F9A1FA11D680F791F8A1F00
:100C1000911DA11D6A0F711D811D911DA11D20D067
:100C200009F468943F912AE0269F11243019305D21
:100C30003193DEF6CF010895462F4770405D419312
:100C4000B3E00FD0C9F7F6CF462F4F70405D4A335F
:100C500018F0495D31FD4052419302D0A9F7EACF27
:100C6000B4E0A6959795879577956795BA95C9F756
:100C700000976105710508959B01AC010A2E069449
:100C80005795479537952795BA95C9F7620F731F02
:100C9000841F951FA01D0895052E97FB1EF4009438
:100CA0000E94630657FD07D00E94070307FC03D08C
:100CB0004EF40C94630650954095309521953F4F26
:100CC0004F4F5F4F089590958095709561957F4F38
:100CD0008F4F9F4F08950E94B506A59F900DB49F1A
:100CE000900DA49F800D911D11240895B7FF0C94C1
:100CF0006B060E946B06821B930B08952F923F9206
:100D00004F925F926F927F928F929F92AF92BF921B
:100D1000CF92DF92EF92FF920F931F93CF93DF93C7
:100D2000CDB7DEB7CA1BDB0B0FB6F894DEBF0FBE24
:100D3000CDBF09942A88398848885F846E847D8471
:100D40008C849B84AA84B984C884DF80EE80FD8073
:100D50000C811B81AA81B981CE0FD11D0FB6F894E9
:100D6000DEBF0FBECDBFED010895A29FB001B39FBE
:100D7000C001A39F700D811D1124911DB29F700DA4
:0C0D8000811D1124911D0895F894FFCFEF
:100D8C00C4018813CA01B80BD601DC058201A00F7F
:100D9C00E401E80301000000004014544B6F702084
:100DAC0062696C20686F73204800476F6420626929
:100DBC006C61666661720048617272797320426977
:100DCC006C6172004B6F702070616A20686F7320C9
:100DDC004600536B796E64612C2070616A20736CD1
:100DEC0075740050657474657220627967676572FA
:100DFC000052696E67205065747465720052696E9A
:100E0C0067204C616E6762656E004669786172207E
:100E1C0062696666656E0053796E617320686172F3
:100E2C003F004F6B616E74206D656464656C616E20
:100E3C00646500202020202020202020202020203D
:100E4C00202020004861727279004661726D6F72C9
:100E5C0020416E6B6100537661727465205065742D
:100E6C0074657200494F542052656B6C616D6279E8
:040E7C00726100009F
:00000001FF
