:100000000C9434000C9451000C9451000C94510049
:100010000C9451000C9451000C9451000C9451001C
:100020000C9451000C9451000C9451000C9451000C
:100030000C9451000C9451000C9451000C945100FC
:100040000C9451000C9451000C9451000C945100EC
:100050000C9451000C9451000C9451000C945100DC
:100060000C9451000C94510011241FBECFEFD8E026
:10007000DEBFCDBF12E0A0E0B1E0E0E6FEE002C0EE
:1000800005900D92A432B107D9F722E0A4E2B2E0C4
:1000900001C01D92AB33B207E1F70E942D030C940F
:1000A0002E070C940000EF92FF920F931F93CF93B3
:1000B000DF938C01C0E0D1E0FE0180E090E07C01A4
:1000C0000817190721F022813381E20EF31E0196F1
:1000D000349685309105A1F70E94E103B7010E9493
:1000E000490320E030E0522F432F2017310739F029
:1000F0006A817B818617970750F0861B970B2F5FCD
:100100003F4F24962530310571F74FEF5FEF852F74
:10011000942FDF91CF911F910F91FF90EF90089551
:10012000823009F170F4811113C00E94E10363E091
:1001300070E00E945D038130B8F1C9F188E791E079
:100140000895833019F1843061F183EE91E00895D0
:100150000E94E10362E070E00E945D03811551F1AD
:1001600083E991E0089560912502709126028091C3
:100170002702909128022CE330E040E050E00E94FA
:10018000710320FD1AC084EA91E008950E94E10302
:1001900062E070E00E945D03811591F08BEC91E0CC
:1001A000089588ED91E008958DE191E008958FE440
:1001B00091E0089585E891E0089582EB91E008953B
:1001C0008EEB91E00895BC018091240290E00196AD
:1001D0000E945D0380932402089581E090911401B0
:1001E000911180E0809314010895EF92FF920F9394
:1001F0001F93CF93DF93CDB7DEB765970FB6F89413
:10020000DEBF0FBECDBF8C01FC0101900020E9F7DD
:100210003197CF01801B910B8A8B9B8B20912402FD
:1002200030E0FE0131967E0191E1E90EF11CEC8B8C
:10023000FD8BC9016A897B890E945D03D801A80FE3
:10024000B91F8C9181932F5F3F4FEE15FF0589F702
:10025000198A61E080E00E94AF028C899D890E942A
:10026000E60265960FB6F894DEBF0FBECDBFDF91F4
:10027000CF911F910F91FF90EF900895CF92DF9251
:10028000FF920F931F93CF93DF9300D000D0CDB791
:10029000DEB789839A838B01F42E0E94E40160E02B
:1002A00080E00E94AF0289819A810E94E60210924A
:1002B000240281E080931401F80101900020E9F705
:1002C0003197CF01801B910B89839A839AE0F99E25
:1002D000600111241B821C828B819C818C159D05E1
:1002E00000F18091250290912602A0912702B09101
:1002F00028028F0D911DA11DB11D809325029093A1
:100300002602A0932702B09328020F900F900F901F
:100310000F90DF91CF911F910F91FF90DF90CF90C1
:10032000089589819A810E94E300C8010E94F50026
:100330002FEF84E39CE0215080409040E1F700C023
:1003400000008B819C8101968B839C83C5CF9BB1E0
:100350009F708295807F892B8BB95B985B9A5B98A5
:100360008FEA94E00197F1F700C000000895CF9361
:10037000DF930F92CDB7DEB78983611561F05A9A8A
:10038000898182958F700E94A70189810F90DF91EA
:10039000CF910C94A7015A98F3CF60E00C94B70169
:1003A00061E00C94B70180913A02982F9460909389
:1003B0003A028C600C94CD0180913A028B7F80933D
:1003C0003A0288600C94CD0181E00E94CD018FE358
:1003D0009FE10197F1F700C0000008958AB18C6F8A
:1003E0008AB98BB1837F8BB92FEF80E792E02150E0
:1003F00080409040E1F700C0000083E00E94A70128
:100400008FE090E40197F1F700C0000083E00E94C4
:10041000A7018FE090E40197F1F700C0000083E0AE
:100420000E94A7018FE090E40197F1F700C000005F
:1004300082E00E94A7018FE090E40197F1F700C0ED
:10044000000088E20E94CD018FE090E40197F1F76F
:1004500000C000000E94E4018FE090E40197F1F7F2
:1004600000C0000084E080933A028CE00E94CD013D
:100470008FE090E40197F1F700C00000089582E05A
:100480000E94CD018FE39FE10197F1F700C00000CA
:10049000089580913A02982F916090933A02896072
:1004A0000C94CD0180913A028E7F80933A0288604D
:1004B0000C94CD0180913A02982F926090933A0269
:1004C0008A600C94CD0180913A028D7F80933A022C
:1004D00088600C94CD0188E10C94CD018CE10C94E2
:1004E000CD0180913A02982F926090933A028660F3
:1004F0000C94CD0180913A028D7F80933A02846002
:100500000C94CD0180913A02982F916090933A0219
:1005100085600C94CD0180913A028E7F80933A02DF
:1005200084600C94CD010F931F93CF93DF93880FBA
:10053000880F880F88738064EB010E94CD018E01C3
:10054000085F1F4F89910E94D001C017D107D1F7D2
:1005500080E8DF91CF911F910F910C94CD01E62F90
:10056000F0E0E75EFE4F9081890F80680C94CD012A
:10057000FC01DC012C91211102C010820895233C62
:1005800061F4DC0111963C91343AA1F040F4353825
:10059000A1F03639C1F0343899F0019609C0353AE6
:1005A00029F0363BD1F7029626EF02C0029625EEDF
:1005B0002193DFCF029624EEFBCF029625ECF8CFF5
:1005C000029624ECF5CF029626EDF2CFCF93DF937F
:1005D00000D000D0CDB7DEB789839A830E94B802DD
:1005E00029812B833A813C83EB81FC8180818111BD
:1005F00007C00F900F900F900F90DF91CF9108954B
:10060000EB81FC813196EB83FC830E94D001ECCF1F
:10061000EF92FF920F931F93CF93DF93CDB7DEB787
:100620008E01075F1F4FF801E190F1908F01C70124
:100630000E94B8029801A70161E170E089E292E0AE
:100640000E94EF0389E292E00E94E602DF91CF91DF
:100650001F910F91FF90EF9008950E94EE0182ED9F
:1006600094E00E94E603CFEFDFEFCE010E9453003B
:10067000EC010E949000FE01EE0FFF1FEE0FFF1F26
:10068000E050FF4F44E1BC01808191810E943E0116
:10069000ECCFAA1BBB1B51E107C0AA1FBB1FA617AB
:1006A000B70710F0A61BB70B881F991F5A95A9F71B
:1006B00080959095BC01CD01089597FB072E16F407
:1006C000009407D077FD09D00E94490307FC05D0AC
:1006D0003EF4909581959F4F0895709561957F4F59
:1006E0000895A1E21A2EAA1BBB1BFD010DC0AA1F73
:1006F000BB1FEE1FFF1FA217B307E407F50720F08B
:10070000A21BB30BE40BF50B661F771F881F991F05
:100710001A9469F760957095809590959B01AC014E
:10072000BD01CF010895AAE0B0E0E9E9F3E00C943F
:10073000F80689879A87FC016081718182819381A3
:1007400000977040604021F464E279ED8BE597E01A
:100750002DE133EF41E050E00E94B60629833A8351
:100760004B835C839B01AC01A7EAB1E40E94D506F0
:100770006D837E838F839887ACEEB4EF29813A81B5
:100780004B815C810E94E3062D813E814F8158851B
:10079000260F371F481F591FC901DA01B7FF03C0D1
:1007A0000197A109B048E985FA8580839183A283E6
:1007B000B3839F772A96E2E00C9414070E94930378
:1007C000089585E191E00E949303089580931501B7
:1007D0009093160110921701109218010895AEE03F
:1007E000B0E0E5EFF3E00C94F6068C01CA0146E0B8
:1007F0004C8309831A83FB016130704810F0E0E0FC
:10080000F0E83197ED83FE83A901BC01CE0101968A
:100810000E941C044D815E8157FD0AC02F813885DE
:10082000421753070CF49A01020F131FF8011082AC
:100830002E96E4E00C941207ACE0B0E0E2E2F4E0C3
:100840000C94EB065C016B017A01FC0116821782A5
:10085000838181FFD3C12AE0522EF5012381F60165
:1008600023FD859123FF81916F01811509F42CC12E
:10087000853239F423FD959123FF91916F019532D3
:1008800029F4B50190E00E941706E7CF30E0712C03
:1008900000E010E0103210F59B32C9F050F49032B5
:1008A000B9F09332C9F09E3261F516FD0DC11064A6
:1008B00005C09D3279F0903399F41160F60123FD63
:1008C000959123FF91916F019111E4CF23C01260A4
:1008D0001460F4CF1860F2CF1061F0CF17FD1AC08A
:1008E00080ED890F8A30F8F616FF05C0759C800DE3
:1008F0001124782EE3CF059D800D1124082F10625E
:10090000DDCF9C3611F41068D9CF9C3409F440C077
:100910009836A1F2892F8F7D85548330D8F1933694
:1009200009F45FC0933709F46AC0933509F476C0BF
:10093000943619F0993609F0A2C0F70117FF98C054
:1009400061917191819191917F011F7697FF03C011
:100950000E94CD0610682AE030E04E014FEF841A65
:10096000940AA4010E945806682E681816FFD2C087
:10097000812F8E7F671408F0CCC014FF1DC112FDBB
:1009800011C11E7E972C812F867809F4CEC00FC12D
:1009900031E094CF311509F1F8E0EF0EF11C8FE34F
:1009A000898391E0692E712C4E018FEF881A980A85
:1009B0001F7713FD04C06016710408F43FC0611472
:1009C000710409F042C0011509F447CFB50180E276
:1009D00090E00E9417060150F6CF44E0E40EF11CAF
:1009E000DECFF70180818983F2E0EF0EF11C81E018
:1009F000682E712C4E014FEF841A940AD9CFF7015B
:100A0000819091907F01672D70E016FD02C06FEF1D
:100A10007FEFC4010E940C063C01CACFF701819010
:100A200091907F01672D70E016FD02C06FEF7FEFA0
:100A3000C4010E9401063C011068BBCFB50180E2F1
:100A400090E00E9417060150B6CFF40117FD859182
:100A500017FF81914F01B50190E00E94170681E0D8
:100A6000011101C080E0081BF1E06F1A7108A7CFE7
:100A700061917191872F880F880B982F65CF9537DB
:100A8000C9F41F7E1C872AE030E0FC85F7FF3BC0DD
:100A9000F70161917191819191917F014E014FEF29
:100AA000841A940AA4010E945806682E68181C85AE
:100AB0001F775CCF812F897F8C87903799F058F40E
:100AC0009835B9F09F36E1F0F501868197812C9633
:100AD000EFE00C9407079837B9F714FD06C020E142
:100AE00030E0D3CF9C8590619C87EC85E460EC87F7
:100AF000F6CF14FF02C016601C8720E132E0C5CF9C
:100B000028E030E0C2CFF7016191719180E090E080
:100B1000C4CF182F962C14FF36CFFE01E60DF11D21
:100B20008081803309F041C0197E13FD0EC010FF93
:100B30004FC0762C901618F4700E7918902E802FD6
:100B40008919091508F480E0980E901608F042C043
:100B5000091914FF41C0B50180E390E00E94170617
:100B600012FF09C088E590E011FD02C088E790E01F
:100B7000B5010E9417066714D0F14E018FEF881A55
:100B8000980A6A94FE013296E60DF11D3F01F301C9
:100B900082913F01B50190E00E9417066814790424
:100BA000B1F711CF972C182FB8CF12FD02C0939434
:100BB000BCCF93949394B9CF972C182FE4CEB50162
:100BC00080E290E00E94170683948016C0F3B7CFAE
:100BD000892CFBCF00E0BDCF812F867861F280E2C7
:100BE00011FD8BE217FD8DE2B50190E0C2CFB5019A
:100BF00080E390E00E9417067A94BDCF8FEF9FEFBD
:100C000066CFFC010590615070400110D8F78095C7
:100C100090958E0F9F1F0895FC01615070400190C8
:100C20000110D8F7809590958E0F9F1F0895A3E02F
:100C3000B0E0EDE1F6E00C94F706182F99836A8393
:100C40007B83DB0113968C9181FD09C01FEFBFEF01
:100C5000B983812F99812396E3E00C94130782FFD7
:100C60001BC0EA81FB812681378184819581281709
:100C7000390754F40190F081E02DCF010196AA814B
:100C8000BB818D939D931083EA81FB81868197813F
:100C9000019686839783DDCFAA81BB811896ED915B
:100CA000FD911A97BD01812F0995892B69F3CECF4C
:100CB000FA01AA27283051F1203181F1E8946F938D
:100CC0006E7F6E5F7F4F8F4F9F4FAF4FB1E03ED033
:100CD000B4E03CD0670F781F891F9A1FA11D680FD1
:100CE000791F8A1F911DA11D6A0F711D811D911D04
:100CF000A11D20D009F468943F912AE0269F112479
:100D00003019305D3193DEF6CF010895462F4770DC
:100D1000405D4193B3E00FD0C9F7F6CF462F4F7037
:100D2000405D4A3318F0495D31FD4052419302D095
:100D3000A9F7EACFB4E0A69597958795779567953B
:100D4000BA95C9F700976105710508959B01AC013B
:100D50000A2E06945795479537952795BA95C9F762
:100D6000620F731F841F951FA01D0895052E97FB0A
:100D70001EF400940E94CD0657FD07D00E94710317
:100D800007FC03D04EF40C94CD0650954095309559
:100D900021953F4F4F4F5F4F0895909580957095E7
:100DA00061957F4F8F4F9F4F08950E941F07A59F0A
:100DB000900DB49F900DA49F800D911D1124089556
:100DC000B7FF0C94D5060E94D506821B930B08959D
:100DD0002F923F924F925F926F927F928F929F924B
:100DE000AF92BF92CF92DF92EF92FF920F931F9339
:100DF000CF93DF93CDB7DEB7CA1BDB0B0FB6F894EA
:100E0000DEBF0FBECDBF09942A88398848885F8429
:100E10006E847D848C849B84AA84B984C884DF809A
:100E2000EE80FD800C811B81AA81B981CE0FD11D7E
:100E30000FB6F894DEBF0FBECDBFED010895A29F9F
:100E4000B001B39FC001A39F700D811D1124911D9E
:100E5000B29F700D811D1124911D0895F894FFCF4C
:100E6000F4018813FA01B80B0602DC05C301A00FD8
:100E70001402E8030101000000004014544B6F709D
:100E80002062696C20686F732048617272792E202D
:100E9000456E20676F642062696C616666617220CE
:100EA00028666F72204861727279212920200047DC
:100EB0006F642062696C61666661722C20486564AB
:100EC00065726C6967652048617272797320426946
:100ED0006C61722020202000486172727973204278
:100EE000696C6172004B6F702070616A20686F736B
:100EF000204600536B796E64612C2070616A207308
:100F00006C757400506574746572206279676765EA
:100F1000720052696E672050657474657200526980
:100F20006E67204C616E6762656E0046697861721B
:100F30002062696666656E0053796E617320686130
:100F4000723F004F6B616E74206D656464656C6107
:100F50006E6465004861727279004661726D6F72ED
:100F600020416E6B61005376617274652050657428
:100F700074657200494F542052656B6C616D6279E3
:040F8000726100009A
:00000001FF
